:03000000020936BC
:0C093600787FE4F6D8FD75814002084A85
:100497000000FB04FB90FC0CFC44FCACFD09FD34A4
:1004A700FD82FDC8FE06FE22FE56FE85FE9AFEC1AF
:1004B700000500050006000500080007000000050C
:1004C70000050006000500090008000000050005FA
:1004D700000C000A0008000700060000000B000BD4
:1004E700000A0008000A00090000000300030006D4
:1004F70000060006000600060003000300060006CB
:1005070000060006000600030003000600060006BA
:1005170000030003000600030003000600060006B0
:100527000006000000080009000A0008000800098A
:10053700000A0008000A000B000C000A000B000C60
:10054700000C000D000C000B000A0008000C000D49
:10055700000C000B000A0008000900050008000055
:100567000009000500080000000300030003000362
:100577000003000300030003000300030006000359
:100587000003000600030003000300030006000643
:100597000003000300030003000600060006000630
:1005A7000006000600060006000600000006000719
:1005B7000008000C000B0000000500060007000BF8
:1005C700000A0000000A000A000D000C000B0009D9
:1005D70000000007000700080009000B000A0000E0
:1005E70000030003000600060006000600030003E0
:1005F70000060006000600060003000300060006CA
:1006070000060006000300030006000300060006BC
:100617000006000000060007000800070008000A9F
:10062700000700000003000600050006000800059B
:10063700000000030004000300040008000300009A
:10064700000800070004000400070007000000037B
:100657000006000900030006000600060006000663
:100667000009000300060006000600060006000950
:100677000003000300060006000600060009000349
:08068700000600060006000059
:10084A00C290C291C29212068F30B20630B3032010
:10085A00B4F720B213C290D291D29212068F7FE8D7
:10086A007E031208CD12000E20B313D290C291D289
:10087A009212068F7FE87E031208CD12078920B4F0
:10088A00BFD290D291C29212068F7FE87E031208DD
:06089A00CD12026A80AAE3
:10000E00758901D2AFD2A930B20302009EE4F53E4B
:10001E00E53E25E02426F8E6FC08E6FD8C3CF53DA1
:10002E00E53E25E02410F8E6FE08E6FF4E700302DA
:10003E000269ED4C700FFC7D641209248E3F8F40D7
:10004E001208CD8047E53D25E0FFE53C33FE749771
:10005E002FF58274043EF583E493FC740193FDEC5A
:10006E00F58CAF058F8AD28CE53E25E024F1F58222
:10007E00E43404F583E493FE740193FF7C007D6405
:10008E001209248E3F8F401208CDC28C053E80800F
:10009E0030B303020138E4F53EE53E25E0242BF5AE
:1000AE0082E43405F583E493FC740193FD8C3CF5F6
:1000BE003DE53E25E0246FF582E43405F583E493B7
:1000CE00FE740193FF4E7003020269ED4C700FFC3B
:1000DE007D641209248E3F8F401208CD8047E53D86
:1000EE0025E0FFE53C33FE74972FF58274043EF550
:1000FE0083E493FC740193FDECF58CAF058F8AD2EB
:10010E008CE53E25E0246FF582E43405F583E49317
:10011E00FE740193FF7C007D641209248E3F8F4094
:10012E001208CDC28C053E0200A730B4030201D2E4
:10013E00E4F53EE53E25E024B3F582E43405F5838F
:10014E00E493FC740193FD8C3CF53DE53E25E024E3
:10015E00E7F582E43405F583E493FE740193FF4ED4
:10016E007003020269ED4C700FFC7D641209248E3F
:10017E003F8F401208CD8047E53D25E0FFE53C333B
:10018E00FE74972FF58274043EF583E493FC74019C
:10019E0093FDECF58CAF058F8AD28CE53E25E024DD
:1001AE00E7F582E43405F583E493FE740193FF7C56
:1001BE00007D641209248E3F8F401208CDC28C053B
:1001CE003E02014130B503020015E4F53EE53E2541
:1001DE00E0241BF582E43406F583E493FC7401936A
:1001EE00FD8C3CF53DE53E25E02455F582E43406D4
:1001FE00F583E493FE740193FF4E605FED4C700F38
:10020E00FC7D641209248E3F8F401208CD8047E595
:10021E003D25E0FFE53C33FE74972FF58274043ED6
:10022E00F583E493FC740193FDECF58CAF058F8A96
:10023E00D28CE53E25E02455F582E43406F583E4C0
:10024E0093FE740193FF7C007D641209248E3F8F10
:0B025E00401208CDC28C053E0201DBFF
:010269002272
:10078900758901D2AFD2A920B2517F2C7E011208FE
:10079900CD20B31130B40E30B50B753C00753D0555
:1007A9001208A6C28C30B31120B40E30B50B753CBB
:1007B90000753D061208A6C28C30B30B30B4082070
:1007C900B5051208A0C28C30B31130B40E30B50B88
:1007D900753C00753D011208A6C28C20B31D7F2C03
:1007E9007E011208CD20B208753C00753D058006D2
:1007F900753C00753D021208A6C28C20B41D7F2CE1
:100809007E011208CD20B208753C00753D068006B0
:10081900753C00753D031208A6C28C30B50302076A
:10082900907F2C7E011208CD20B2081208A0C28C3C
:10083900020790753C00753D041208A6C28C020798
:01084900901E
:10026A00E4F53EF53F758901D2AFD2A9D3E53F94B3
:10027A0009E53E64809480400302048D30B2030293
:10028A00035D7F2C7E011208CD20B33130B42E30AD
:10029A00B52B753C00753D051208A6C28CAF3FEF21
:1002AA0025E02426F87600087605EF25E02410F8E4
:1002BA007600087603053FE53F7002053E30B3310C
:1002CA0020B42E30B52B753C00753D061208A6C227
:1002DA008CAF3FEF25E02426F87600087606EF2556
:1002EA00E02410F87600087603053FE53F70020522
:1002FA003E30B32B30B42820B5251208A0C28CAFEB
:10030A003FEF25E02426F87600087607EF25E0245B
:10031A0010F87600087603053FE53F7002053E3087
:10032A00B33130B42E30B52B753C00753D0112083F
:10033A00A6C28CAF3FEF25E02426F87600087601A6
:10034A00EF25E02410F87600087603053FE53F70B4
:10035A0002053E20B3627F2C7E011208CD20B22D09
:10036A00753C00753D051208A6C28CAF3FEF25E02B
:10037A002426F87600087605EF25E02410F87600A2
:10038A00087603053FE53F702F053E802B753C003C
:10039A00753D021208A6C28CAF3FEF25E02426F86D
:1003AA007600087602EF25E02410F8760008760336
:1003BA00053FE53F7002053E20B4627F2C7E0112A4
:1003CA0008CD20B22D753C00753D061208A6C28CD8
:1003DA00AF3FEF25E02426F87600087606EF25E001
:1003EA002410F87600087603053FE53F702F053E96
:1003FA00802B753C00753D031208A6C28CAF3FEFF7
:10040A0025E02426F87600087603EF25E02410F884
:10041A007600087603053FE53F7002053E30B503D6
:10042A000202767F2C7E011208CD20B2281208A083
:10043A00C28CAF3FEF25E02426F87600087607EF56
:10044A0025E02410F87600087603053FE53F703072
:10045A00053E020276753C00753D041208A6C28C60
:10046A00AF3FEF25E02426F87600087604EF25E072
:10047A002410F87600087603053FE53F7002053E32
:0C048A00020276E4F53AF53BF524F52576
:010496002243
:03000B000208EDFB
:1008ED00C0E0C083C082C0D075D008B2A4E53D255C
:1008FD00E0FFE53C33FE74972FF58274043EF583DB
:10090D00E493FC740193FDECF58CAF0D8F8AD0D080
:07091D00D082D083D0E0324C
:1008A000753C00753D07E53D25E0FFE53C33FE74F2
:1008B000972FF58274043EF583E493FC740193FD55
:0D08C000ECF58CAF058F8AD28C7F647E0032
:1008CD00E4FDFCC3ED9FEC9E5015E4FBFA0BBB0061
:0F08DD00010AEB64644A70F50DBD00010C80E464
:0108EC0022E9
:10068F00AE90C2A6C2B6C2A7758038120782D2A793
:10069F00C2A7C2A6C2B6C2A7758001120782D2A78F
:1006AF00C2A7C2A6C2B6C2A7758006120782D2A77A
:1006BF00C2A7C2A6C2B6C2A775800C120782D2A764
:1006CF00C2A7C2A6C2B6C2A7758080120782D2A7E0
:1006DF00C2A7EEB4F81C7B0F7900D2A6C2B6C2A790
:1006EF00E990075D93F580120782D2A7C2A709DBB5
:1006FF00E922EEB4FE1C7B077900D2A6C2B6C2A7D0
:10070F00E990076C93F580120782D2A7C2A709DB85
:10071F00E922EEB4FD1C7B077900D2A6C2B6C2A7B0
:10072F00E990077393F580120782D2A7C2A709DB5E
:10073F00E9227B087900D2A6C2B6C2A7E990077A50
:10074F0093F580120782D2A7C2A709DBE92243489B
:10075F004F4F53452046554E4354494F4E313A4D16
:10076F0055534943323A5049414E4F333A5245431C
:0A077F004F52447FE50000DFFC222A
:10092400EF8DF0A4A8F0CF8CF0A428CE8DF0A42EE7
:02093400FE22A1
:00000001FF
